:020000040800F2
:10000000F8200020E5010008430B0008FF08000865
:10001000410B00086B0500083914000800000000BF
:100020000000000000000000000000000D0F0008AC
:100030006F05000800000000FB010008F510000833
:10004000FF010008FF010008FF010008FF01000890
:10005000FF010008FF010008FF010008FF01000880
:10006000FF010008FF010008FF0100086D050008FE
:10007000FF010008FF010008FF010008FF01000860
:10008000FF010008FF010008FF010008FF01000850
:10009000FF010008FF010008FF010008FF01000840
:1000A000FF010008FF010008FF010008FF01000830
:1000B000FF010008FF010008FF010008FF01000820
:1000C000FF010008FF010008FF010008FF01000810
:1000D000FF010008FF0100087D110008FF01000872
:1000E000FF010008FF010008FF010008FF010008F0
:1000F000FF010008FF010008FF010008FF010008E0
:10010000FF010008FF010008FF010008FF010008CF
:10011000FF010008FF01000859110008FF01000855
:10012000FF010008FF010008FF010008FF010008AF
:1001300000F002F800F043F80AA090E8000C8244B6
:100140008344AAF10107DA4501D100F038F8AFF293
:10015000090EBAE80F0013F0010F18BFFB1A43F0A5
:10016000010318479C300000BC300000103A24BF47
:1001700078C878C1FAD8520724BF30C830C144BF0C
:1001800004680C607047000000230024002500264E
:10019000103A28BF78C1FBD8520728BF30C148BFEA
:1001A0000B6070471FB500F063F9040000200021C8
:1001B00002F0E4FB401C60601FBD10B510BD00F0F4
:1001C0005FF91146FFF7EEFF01F0ECFD00F07DF95D
:1001D00003B4FFF7F2FF03BC00F0C0F980F3088816
:1001E000704700000948804709480047FEE7FEE7DE
:1001F000FEE7FEE7FEE7FEE7FEE7FEE7FEE7FEE7D7
:1002000004480549054A064B7047000009110008DB
:1002100031010008F80C0020F8200020F810002020
:10022000F810002010B5044600F01AF90068005DCF
:10023000000704D5DF2C02D0A4F1200010BD204619
:1002400010BD40EA010310B59B070FD1042A0DD35E
:1002500010C808C9121F9C42F8D020BA19BA8842A7
:1002600001D9012010BD4FF0FF3010BD1AB1D307E6
:1002700003D0521C07E0002010BD10F8013B11F81C
:10028000014B1B1B07D110F8013B11F8014B1B1B45
:1002900001D1921EF1D1184610BD10B5431C02E0E9
:1002A00010F8011B71B18107FAD14FF0013202C879
:1002B0008C1A8C4314EAC211F9D0C01A0A0603D072
:1002C000C01E10BDC01A10BD0A0401D0801E10BD92
:1002D0000902FCD0401E10BD032A40F2308010F00D
:1002E000030C00F0158011F8013BBCF1020F6244D1
:1002F00098BF11F801CB00F8013B38BF11F8013B62
:10030000A2F1040298BF00F801CB38BF00F8013B0E
:1003100011F0030300F02580083AC0F0088051F87E
:10032000043B083A51F804CBA0E80810F5E7121D89
:100330005CBF51F8043B40F8043BAFF30080D207A8
:1003400024BF11F8013B11F801CB48BF11F8012B74
:1003500024BF00F8013B00F801CB48BF00F8012B97
:10036000704710B5203AC0F00B80B1E81850203A21
:10037000A0E81850B1E81850A0E81850BFF4F5AF45
:100380005FEA027C24BFB1E81850A0E8185044BFCF
:1003900018C918C0BDE810405FEA827C24BF51F83C
:1003A000043B40F8043B08BF7047D20728BF31F830
:1003B000023B48BF11F8012B28BF20F8023B48BF81
:1003C00000F8012B70474FF000020429C0F01280A2
:1003D00010F0030C00F01B80CCF1040CBCF1020FF8
:1003E00018BF00F8012BA8BF20F8022BA1EB0C01CD
:1003F00000F00DB85FEAC17C24BF00F8012B00F8C3
:10040000012B48BF00F8012B70474FF0000200B5E8
:10041000134694469646203922BFA0E80C50A0E827
:100420000C50B1F12001BFF4F7AF090728BFA0E8D5
:100430000C5048BF0CC05DF804EB890028BF40F8A1
:10044000042B08BF704748BF20F8022B11F0804FE3
:1004500018BF00F8012B70477047704770470000C5
:1004600010B500F005F8001D10BD00BF11250000FB
:1004700000487047B40C002000487047940C0020DE
:100480007546FFF7F9FFAE4605006946534620F072
:100490000700854618B020B5FFF7B2FEBDE8204042
:1004A0004FF000064FF000074FF000084FF0000B30
:1004B00021F00701AC46ACE8C009ACE8C009ACE8E3
:1004C000C009ACE8C0098D46704710B50446AFF3CB
:1004D00000802046BDE81040FFF77ABE4FF0013C97
:1004E00050F8042B51F8043B9A4221D1A2EB0C03A3
:1004F000934313EACC1317D150F8042B51F8043B63
:100500009A4215D1A2EB0C03934313EACC130BD1FF
:1005100050F8042B51F8043B9A4209D1A2EB0C038A
:10052000934313EACC13DBD04FF00000704700BFB9
:10053000D01A01BAB1FA81F101F0180122FA01F0E2
:10054000CB40C1F12001DBB2C0B2C01A2CFA01F3DA
:10055000D11A914311EAC311E6D17047014918201D
:10056000ABBEFEE7260002007047FEE7704770470B
:10057000002241F2A27304E00021491C9942FCD3FD
:10058000521C8242F8D370470149C860704700008E
:100590000020024070B505464FF43026304600F08A
:1005A00083F8042811D1094C206940F00200206131
:1005B0006561206940F040002061304600F074F829
:1005C000216941F6FD721140216170BD0020024099
:1005D00004200849CA68D20701D001207047CA68C0
:1005E000520701D502207047C968C906FBD5032010
:1005F00070470000002002400248016941F080017C
:10060000016170470020024004490A6822F010028C
:100610000A600A6802430A60704700000020024036
:100620002DE9F84105460E46002000904FF4005792
:10063000384600F039F804280FD10F4C206940F0FB
:10064000010020612E80B846404600F02DF8BF1E04
:10065000042804D0216939402161BDE8F881AD1C2E
:1006600000950099300C0880404600F01DF8216983
:1006700039402161F1E7000000200240034A11687F
:1006800001F0380101431160704700000020024072
:1006900003480249416003494160704723016745AF
:1006A00000200240AB89EFCD00B50346FFF790FF75
:1006B00002E0FFF78DFF5B1E012801D1002BF8D16E
:1006C000002B00D1052000BD70B505460E46FFF792
:1006D000DFFF2520FFF758FF002405E005EBC420CD
:1006E000FFF758FF641CE4B2B4EBD62FF6D3BDE895
:1006F0007040FFF781BFF0B50024076800239442E3
:100700000CD2C3F10305EE0027FA06F52646641C59
:100710008D555B1C042BF2D3001DEEE7F0BD0B469C
:1007200001461846FFF7D8BD2DE9F74F84B0824641
:10073000069850444FEADA210291401EC00A019007
:100740000025FFF7A5FF2520FFF71EFFDDE90101CA
:10075000401A4FEADA27401CCAF30A06DFF89890DD
:100760004FEAC727DFF8948003903DE04846FFF743
:1007700011FFC5BBDDE90101884234D100244FF4EB
:10078000007B07EB840004221C49FFF7B4FF09EB50
:100790008400D8F80010FFF743FF641C5C45F0D3D9
:1007A0005046FFF7F7FE0024A34619E0A6420BD8F7
:1007B00006983044A04207D9059858440068C8F804
:1007C00000000BF1040B05E004220C4904EB0900C6
:1007D000FFF791FF3819D8F80010FFF721FF241D0B
:1007E000B4F5006FE2D36D1C0398A842BED807B0E1
:1007F000BDE8F04FFFF700BF00D007080800002059
:100800002DE9F04106460D461746FFF741FF25202A
:10081000FFF7BAFE00240EE02819295D427801EBAB
:1008200002218278C078120402EB00600144301982
:10083000FFF7F6FE241DBC42EED3BDE8F041FFF702
:10084000DBBE2DE9F0410022CC7804F00F03E40672
:1008500001D58C7823430C784FF00F0714F0FF0F6D
:100860004FF0010C1CD005680CFA02F40E882640EB
:10087000A64211D1960007FA06F825EA080503FA00
:1008800006F848EA0505CE78282E02D0482E02D078
:1008900002E0446100E00461521C082AE4D30560D0
:1008A0000A88FF2A1ED94568002202F108060CFAC0
:1008B00006F40E882640A64210D1960007FA06F8E4
:1008C00025EA080503FA06F848EA0505CE78282E39
:1008D00000D14461CE78482E00D10461521C082A10
:1008E000E3D34560BDE8F0810246002092680A42E9
:1008F00000D0012070474161704701617047FEE7F9
:1009000010B501F075F900F005F9814C1021204671
:10091000FFF7F3FF40212046FFF7EFFF0120FFF72D
:1009200027FE40212046FFF7E6FF0A20FFF720FEC2
:1009300040212046FFF7E1FF6420FFF719FE112058
:1009400001F0B0F97820FFF713FEB12001F0AAF909
:10095000052001F001FA3C2001F0FEF93C2001F0F5
:10096000FBF9B42001F09EF9002001F0F5F9C02058
:1009700001F098F9282001F0EFF9082001F0ECF9D6
:10098000042001F0E9F9C12001F08CF9C02001F048
:10099000E3F9C22001F086F90D2001F0DDF9002015
:1009A00001F0DAF9C32001F07DF98D2001F0D4F9CE
:1009B0002A2001F0D1F9C42001F074F98D2001F052
:1009C000CBF9EE2001F0C8F9C52001F06BF91A202F
:1009D00001F0C2F9C72001F065F9B62001F0BCF9B9
:1009E0003A2001F05FF9052001F0B6F92A2001F064
:1009F00059F9002001F0B0F9002001F0ADF9002014
:100A000001F0AAF99F2001F0A7F92B2001F04AF983
:100A1000002001F0A1F9002001F09EF9002001F072
:100A20009BF97F2001F098F9362001F03BF9602016
:100A300001F092F9E02001F035F9042001F08CF981
:100A4000222001F089F9072001F086F90A2001F03F
:100A500083F92E2001F080F9302001F07DF9252066
:100A600001F07AF92A2001F077F9282001F074F9D1
:100A7000262001F071F92E2001F06EF93A2001F0E4
:100A80006BF9002001F068F9012001F065F90320FD
:100A900001F062F9132001F05FF9E12001F002F9A1
:100AA000042001F059F9162001F056F9062001F052
:100AB00053F90D2001F050F92D2001F04DF92620B9
:100AC00001F04AF9232001F047F9272001F044F909
:100AD000272001F041F9252001F03EF92D2001F0F9
:100AE0003BF93B2001F038F9002001F035F90120F5
:100AF00001F032F9042001F02FF9132001F02CF954
:100B0000C820FFF735FDBDE81040292001F0CAB824
:100B10000018014070B5094C40212046FFF7EBFE5C
:100B20004FF4FA752846FFF723FD40212046FFF7D2
:100B3000E4FE2846BDE87040FFF71ABD00180140EA
:100B4000FEE7704700214FF0006000F03DB8000064
:100B500070B50F23C27801260178002A1ED0144AEE
:100B6000126802F4E062C2F5E062120AC2F1040403
:100B7000D3404578A54082781A402A43120101F1FA
:100B8000E02181F80024007800F01F018E40400928
:100B9000800000F1E020C0F8006170BD01F01F008E
:100BA00086404809800000F1E020C0F8806170BDF7
:100BB0000CED00E00249084302490860704700005C
:100BC0000000FA050CED00E0024A11400143024822
:100BD0000160704780FFFF1F08ED00E000B585B0A1
:100BE000684600F0B1F801984FF47A71B0FBF1F06B
:100BF000B0F1807F0CD220F07F414FF0E020491E01
:100C00004161044AF02111700021816107210161D5
:100C100005B000BD23ED00E0034A516821F44041D6
:100C2000014351607047000000100240054A00294E
:100C300003D0D1690143D1617047D1698143D1614A
:100C40007047000000100240054A002903D01169D6
:100C500001431161704711698143116170470000C0
:100C600000100240054A002903D0916901439161B7
:100C70007047916981439161704700000010024004
:100C8000054A002903D0D1680143D1607047D1687B
:100C90008143D160704700000010024070B500F041
:100CA00033F84FF48035284600F0CEF802E000F02B
:100CB00015F90446012CFAD1002000F0BBF8002001
:100CC00000F0E8F8A00200F0DBF8A003FFF7A4FFB3
:100CD0000220FFF7D3FC1020FFF796FC4FF4E01141
:100CE000284600F0E7F8012000F0DEF8392000F097
:100CF00081F80028FAD0022000F0E6F800F092F81F
:100D00000828FBD170BD00000C48016841F00101CA
:100D1000016041680A4A114041600168094A114076
:100D20000160016821F480210160416821F4FE0125
:100D300041604FF41F0181607047000000100240C5
:100D40000000FFF8FFFFF6FE10B5264A516801F0DB
:100D50000C01254B002927D0042927D0082927D0AA
:100D60000360516801F0F0010909204B5C5C0168E7
:100D7000E1404160546804F4E064240A1C5D21FAF7
:100D800004F48460546804F46054E40A1B5DD940A0
:100D9000C160526802F44042920B144B1B1F9A5CD4
:100DA000B1FBF2F1016110BD0360DAE70360D8E73F
:100DB000516801F47011536803F48033022404EB8A
:100DC000914133B153689B0307D5094B59430160E7
:100DD000C7E7074B59430160C3E7034B5943016021
:100DE000BFE700000010024000127A00200000203F
:100DF00000093D00034600205909094A01290AD08B
:100E000002290AD0516A03F01F02012393400B42CA
:100E100000D0012070471168F5E7116AF3E7000080
:100E2000001002400248406800F00C0070470000CB
:100E300000100240034A516821F0F0010143516063
:100E400070470000001002400C490A6822F480320A
:100E50000A600A6822F480220A60B0F5803F07D059
:100E6000B0F5802F03D1086840F4A02008607047D7
:100E7000086840F4803008607047000000100240AD
:100E8000034A516821F4E06101435160704700005A
:100E900000100240034A516821F4605141EAC00049
:100EA000506070470010024001490866704700001A
:100EB00000004242034B5A6822F47C12084310435C
:100EC0005860704700100240034A516821F0030146
:100ED00001435160704700000010024018B5002027
:100EE00000904FF4A0643120FFF784FF0099491C63
:100EF00000910099A14201D00028F4D03120FFF7E1
:100F000079FF08B1012018BD002018BD704700F01E
:100F100001B800000CB50022019200922748016838
:100F200041F4803101604FF4A063016801F40031A5
:100F300000910199491C0191009911B901999942B7
:100F4000F3D10168890302D50121009100E00092EC
:100F50000099012930D11A490A6842F010020A604A
:100F60000A6822F003020A600A6842F002020A607C
:100F70004168416041684160416841F4806141607D
:100F8000416821F47C114160416841F4E8114160FD
:100F9000016841F08071016001688901FCD54168F8
:100FA00021F003014160416841F002014160416864
:100FB000C1F381010229FAD10CBD000000100240EA
:100FC000002002402DE9F8430546894616460024D4
:100FD00000200090DFF84C804FF48057394640469F
:100FE000FFF789FC032000F047F84FEA19408DF81D
:100FF00000004FEA19208DF801008DF80290684634
:1010000000F06CF830B10220BDE8F88300F00CF875
:101010002855641CB442F9D339464046FFF76DFCAD
:101020000020F1E70014014070B500240025114EA6
:1010300004213046FFF761FC6806050E04213046A6
:10104000FFF75BFC02213046FFF74EFC10B145F084
:10105000010501E005F0FE0504213046FFF74BFCD9
:10106000641CE4B2082CE7D304213046FFF745FCAA
:10107000284670BD000C01402DE9F04105460024D2
:10108000144E04213046FFF736FC134F042130463E
:10109000FFF731FC280604D580213846FFF72DFCE8
:1010A00003E080213846FFF726FC6806050E042180
:1010B0003046FFF722FC641CE4B2082CE6D304217E
:1010C0003046FFF718FC3846BDE8F0418021FFF7B5
:1010D00014BC0000000C01400018014070B505462A
:1010E0000024285DFFF7C8FF641C032CF9D30020FF
:1010F00070BD00000348D0E90012491C42F1000213
:1011000006C070470000002010B50F48016841F08C
:101110000101016041680D4A1140416001680C4ABB
:1011200011400160016821F480210160416821F4CF
:10113000FE0141604FF41F018160FFF7E8FE0549A1
:101140004FF00060086010BD001002400000FFF882
:10115000FFFFF6FE08ED00E00121014800F002B8B3
:1011600000100040C9430182704710B5FFF7EAFC48
:10117000FFF794FDBDE81040FFF730BD70B51B4D83
:1011800040F225542146284600F0B5F830B32146F8
:10119000284600F033F8164CB4F80008B4F80218EA
:1011A000401CC0F30A00884209D0284600F03CF9F0
:1011B000B4F800184A1CA4F80028605402E028463D
:1011C00000F032F904F500642088C0F30A002080A2
:1011D000012020712021284600F00CF82846BDE8A7
:1011E00070404FF6FF7100F005B800000044004069
:1011F000400000208A05C9430180704740F66A120A
:101200000A0A01219140C9430180704710B5038A41
:101210004FF2FF0213400A884C8822438C88C98809
:101220000C4322431A43028210BD002904D0818955
:1012300041F4005181817047818921F400518181FD
:101240007047000010B5234988420AD101218C0360
:101250002046FFF715FD2046BDE810400021FFF7AE
:101260000FBD1D4988420AD101214C042046FFF7D9
:10127000EBFC2046BDE810400021FFF7E5BC174914
:1012800088420AD101218C042046FFF7DDFC20466C
:10129000BDE810400021FFF7D7BC114988420AD1B0
:1012A0000121CC042046FFF7CFFC2046BDE81040CA
:1012B0000021FFF7C9BC0B4988420AD101210C0566
:1012C0002046FFF7C1FC2046BDE810400021FFF793
:1012D000BBBC10BD00380140004400400048004045
:1012E000004C0040005000400246002012880A4294
:1012F00000D00120704770B5002440F66A12C1F397
:10130000421301F01F05012606FA05F2012B0CD04D
:10131000022B0DD0838A1340090A8E40008830408A
:101320000BB100B10124204670BD83891340F3E75F
:10133000038A1340F0E710B540F66A13C1F3421375
:1013400001F01F040121A140012B07D0022B07D07F
:1013500014303AB102680A43026010BD0C30F8E75D
:101360001030F6E702688A43026010BD30B585B0E0
:1013700004460D46208A4CF6FF710840E988014377
:101380002182A0894EF6F3110840A9882A891143C9
:101390006A8902431143A181A08A4FF6FF410840A8
:1013A000A9890143A1826846FFF7CEFC1D4884420B
:1013B00001D1039800E00298A189090408D500EB47
:1013C000C00101EB001029684900B0FBF1F007E013
:1013D00000EBC00101EB001029688900B0FBF1F0BF
:1013E0006422B0FBF2F109010B096FF018056B43A1
:1013F00000EB8300A3891D044FF0320307D503EBF4
:10140000C000B0FBF2F000F00700084306E003EB79
:101410000010B0FBF2F000F00F000843208105B08F
:1014200030BD0000003801408088C0F308007047DC
:10143000C1F3080181807047FEE7000010B500F09D
:1014400047FBFFF75DFA00F0BFF800F00BF84FF430
:1014500080710348FFF751FABDE8104000F0DCB896
:10146000000C01407CB500F08BF8064680204FF65A
:10147000FF7500210090A0232A46084600F0BAFC20
:10148000162000210090A0231F22084600F0B2FC85
:101490001F2317A203211420009501F0FCF91F243B
:1014A0002B4616A21C210020009401F08CF92B463B
:1014B000321D1C213C20009401F085F92B4612A21C
:1014C0002B210020009401F07EF90120CDE90004D9
:1014D000102365224B211E2000F0DFFCE00200906B
:1014E0002B460CA25F21002001F06DF97CBD0000AD
:1014F000B5A5C6ACBBFAC9FDBCB60000B5B1C7B056
:10150000B0E6B1BEA3BA0000C9FDBCB6B0E6B1BE3C
:10151000A3BA0000BEAFB8E6A3BAC9FDBCB6B9FD18
:10152000B3CCD6D0C7EBCEF0B6CFB5E7A3A10000C1
:1015300070B50346002041F221044FF6FF7510E01C
:1015400013F8012B80EA02200822060403D584EA5E
:10155000400080B201E005EA4000521E12F0FF0296
:10156000F3D1491EECD570BD044A03E00021491CAB
:101570009142FCD3401E80B2F8D27047A086010091
:1015800010B5242202490348FFF7B5F8004810BD02
:10159000700C002000E0070810B5094C4FF4006102
:1015A0002046FFF791F81420FEF7E2FF24220549B8
:1015B0002046FFF725F9BDE810401420FEF7D8BFFC
:1015C00000E00708700C002010B524220B490C48DD
:1015D000FFF791F809484FF0663102688A420CD053
:1015E000016008A191E81C00C968C0E902344260AA
:1015F0000161BDE81040FFF7CFBF10BD700C0020A7
:1016000000E007085459545F545037395630325F60
:1016100056313930000000002DE9FE4F4FF0000830
:1016200000F0B4FC4FF01F0BDFF850A24FF001099F
:1016300000F08CFC064600F00BFD30780C2806D03C
:101640000B281DD00D2841D00A287DD0B8E09AF88B
:1016500000000028FAD18AF800904FF6FF74234664
:10166000B21D2B213C20CDF800B001F0ACF8234690
:1016700083A23C210020CDF800B001F0A4F89FE047
:1016800000200290042202A98148FFF74DF84FF68E
:10169000FF7380A23C210020CDF800B001F093F848
:1016A00000244FF47845CDE9009502231A467B21AA
:1016B000204600F0F2FB241DE4B2A02CF3D300205E
:1016C0007949401C8842FCD3BDE8FE8F002002907F
:1016D000FFF756FF04461420FEF74AFF6C4D4FF407
:1016E00000612846FEF7F0FF1420FEF741FF0422B8
:1016F00002A92846FFF718F82021201DFEF785FED5
:101700004FF0663020601222B11D201DFEF7E4FD6F
:10171000FFF742FF4FF6FF7364A23C210020CDF893
:1017200000B001F050F800244FF47845CDE9009561
:1017300002231A467B21204600F0AFFB241DE4B2B1
:10174000A02CF3D3002000E004E05749401C88425D
:10175000FCD3B9E79AF8010050B98AF801904FF626
:10176000FF7358A23C210020CDF800B001F02BF807
:10177000B08801F09EFA0022564B01F015F904469C
:101780000D46708801F095FA22462B4601F00CF9BF
:1017900001F062FA80B26421B0FBF1F201FB1200A9
:1017A000AAF80200BAF80410884209D0AAF8040086
:1017B0000E21C3B21F2200914C21104600F01AFBEB
:1017C00030780A2835D00020029043484349006809
:1017D00088422ED91420FEF7CBFE2D4C4FF4006129
:1017E0002046FEF771FF1420FEF7C2FE042202A974
:1017F0002046FEF799FF4FF6FF7339A23C210020E7
:10180000CDF800B000F0DFFF00244FF47845CDE9BB
:10181000009502231A467B21204600F03EFB241D42
:10182000E4B2A02CF3D300201F49401C8842FCD313
:101830004AE708F1010844F6206080457FF6F8AEDB
:101840004FF000084FF47840CDE9009002231A468B
:101850007B21384600F021FB3F1DFFB29F2FFFF494
:10186000E7AE00274FF6FF70CDE900900223A022DB
:101870007B21002000F011FBDAE6000030000020A0
:10188000D5FDD4DACFC2D4D8B9CCBCFE2E2E2E00D2
:1018900000D80708D2D1BEADCAC7D7EED0C2B0E6D5
:1018A000B1BEA3A10000000080C3C901C9FDBCB640
:1018B000B3C9B9A6A3A1BCB4BDABD6D8C6F42E2E6D
:1018C0002E000000D5FDD4DAC9FDBCB6B9CCBCFEF3
:1018D0002E2E2E000000594000000020E09304004E
:1018E000C9FDBCB6B9CCBCFEB3ACCAB12CC6F4B60B
:1018F000AFD3A6D3C300000008B5010AC0B2A1F15E
:10190000A102022A09D8A12807D3C2EB021101EBD8
:10191000421100EB4100A13815E0A92905D1A12809
:1019200003D3F62801D879300DE0B039472909D81A
:10193000A12807D3C1EB011202EB411100EB4100DA
:10194000CF3000E000204FF43C5101EB4000022278
:10195000694600F0C7F8BDF80000010A01EB00205D
:1019600080B208BD10B5034620395E290AD801EBC4
:101970004100054901EB80000C22194600F0B2F845
:10198000012010BD002010BD406D060010B50346BB
:1019900020395E2908D8054800EB011010221946AD
:1019A00000F0A0F8012010BD002010BDC0B703005A
:1019B0002DE9F04106460C4621780F466078A1F1EA
:1019C000A102214B022A0DD8A1280BD3C2EB021190
:1019D00001EB421100EB4100A13800EB400003EBAA
:1019E000C0052AE0A92907D1A12805D3793000EB49
:1019F000400003EBC00520E0B03947290DD8A128ED
:101A00000BD3C1EB011202EB411100EB4100D730C7
:101A100000EB400003EBC0050FE039463046FFF70E
:101A2000B5FF40B1617806F11000FFF7AFFF20B1BC
:101A30000120BDE8F0810020FBE71822314628464E
:101A400000F050F80120F4E780CF030070B506469F
:101A50000C46237819466078A1F1A402042A03D821
:101A6000A12801D300252CE0A1F1A102082A0AD85F
:101A7000A12808D3C2EB021101EB421100EB410097
:101A8000A13845011DE0B03947290BD8A12809D359
:101A9000C1EB011202EB411100EB410000F2AD205D
:101AA00045010EE019463046FFF770FF38B1617806
:101AB00006F11000FFF76AFF18B1012070BD002089
:101AC00070BD20223146284600F00CF8012070BD80
:101AD00010B500F02DFDBDE810404EF2B220FFF72A
:101AE0000BBF00002DE9F05F0E46914620F07F40CD
:101AF00040F0407549463046FEF765FC4FF4805A89
:101B000051462848FEF7F7FE0024DFF89CB0DFF8C6
:101B10009C804FF0004727FA04F0284204D080212F
:101B20005846FEF7EAFE03E080215846FEF7E3FE42
:101B300004214046FEF7DFFE04214046FEF7DDFEAD
:101B4000641CE4B2202CE6D30024012722E0002507
:101B500004214046FEF7D1FE04214046FEF7CBFEAD
:101B600002214046FEF7C0FE38B1305DC5F10701E5
:101B700007FA01F10843305506E0305DC5F1070171
:101B800007FA01F1884330556D1CEDB2082DDFD303
:101B9000641CE4B24C45DAD35146BDE8F05F01481D
:101BA000FEF7ABBE0014014000180140000C0140DC
:101BB00030B5002315E0CC5C302505EB141504F09E
:101BC0000F043034392D01D9ED1DEDB2392C01D976
:101BD000E41DE4B200F8135000EB43056C705B1C8D
:101BE0009BB29342E7D3002100F8121030BD0000F1
:101BF0002DE9F84301210420FFF734F801210820E2
:101C0000FFF730F801211020FFF72CF801212020E8
:101C1000FFF728F801214020FFF724F84FF67C70E9
:101C2000ADF8000001258DF8025010248DF8034016
:101C30001A4F69463846FEF704FE2601ADF80060EB
:101C40008DF802508DF80340DFF854806946404615
:101C5000FEF7F7FD31464046FEF74DFEADF8005069
:101C600003268DF802608DF8034069463846FEF77A
:101C7000E8FD01213846FEF73EFE6501ADF8005053
:101C80008DF802608DF8034069464046FEF7D9FDA5
:101C900029464046FEF72FFEBDE8F88300180140B4
:101CA000000C014070B50446104D10212846FEF787
:101CB00024FE04212846FEF71EFE20212846FEF7BA
:101CC0001AFE08212846FEF716FE08480C30016867
:101CD00064F31F21016008212846FEF70EFE284606
:101CE000BDE870400421FEF708BE00000018014066
:101CF00070B50546174E10213046FEF7FEFD042153
:101D00003046FEF7F8FD20213046FEF7F6FD114C77
:101D10000C342168284661F3070020600821304612
:101D2000FEF7E9FD08213046FEF7E7FD2068E9B23D
:101D300061F31F20206008213046FEF7DCFD0821FA
:101D40003046FEF7DAFD3046BDE870400421FEF76C
:101D5000D4BD00000018014070B50446104D10219C
:101D60002846FEF7CAFD04212846FEF7C4FD2021BF
:101D70002846FEF7C2FD0A480C30016864F31F21B3
:101D8000016008212846FEF7B6FD08212846FEF727
:101D9000B4FD2846BDE870400421FEF7AEBD00004A
:101DA0000018014008B5FFF7E0F9042269460D4824
:101DB000FEF7A1FC0098B0F1883F01D1FFF73EFB90
:101DC00072B609480068FEF709FA00F0A7FB074859
:101DD0000168074A01F4E06111430160BFF34F8FCE
:101DE000FEE7000000D80708004000080CED00E006
:101DF0000400FA052DE9F0410446069F90461E4670
:101E0000781E83B2701E82B2204600F075F82C2036
:101E1000FFF748FF002508E0002403E04046FFF7F5
:101E200067FF641CB442F9DB6D1CBD42F4DBBDE806
:101E3000F0812DE9F05F9246DDF828809946A8F1FF
:101E4000010293B2A9F1010292B200F055F82C20E0
:101E5000FFF728FF00254FF0010B1AE00024EE08E1
:101E600005F0070006FB08F60BFA00F70DE00AEB99
:101E70000400305C384203D00B98FFF739FF02E0D2
:101E80000C98FFF735FF641CE4B24C45EFD36D1C92
:101E9000EDB24545E2D3BDE8F09F2DE9F84F044689
:101EA000DDE90A6A0D4617469946FBB2E9B2E0B28F
:101EB00052460096FFF79EFF09F0FF08E9B2E0B234
:101EC00033465246CDF80080FFF794FFE019801B9F
:101ED000E9B2C0B233465246CDF80080FFF78AFF20
:101EE00005EB0900801BC1B2FBB2E0B2524600967E
:101EF000FFF780FFBDE8F88F2DE9F04104460D465D
:101F000017461E462A20FFF7CDFE200AFFF724FFC2
:101F1000E0B2FFF721FF3C44C4F30720FFF71CFFAA
:101F2000E0B2FFF719FF2B20FFF7BCFE280AFFF7EE
:101F300013FFE8B2FFF710FFAC19C4F30720FFF757
:101F40000BFFE0B2BDE8F041FFF706BF0048704765
:101F5000460C002038B501212020FEF783FE4FF407
:101F60000074ADF8004003208DF8020010208DF8B9
:101F70000300054D69462846FEF763FC21462846C6
:101F8000FEF7BBFC38BD00000014014010B500F0A6
:101F90008BFBFFF7DFFF4FF400710B48FEF7ADFC42
:101FA0000D210AA000F002FC1420FFF7DDFA0D213C
:101FB00006A000F0FBFB2A210848FEF704FA0849B6
:101FC0000648C86010BD00000014014041542B4376
:101FD00046554E3D312C310D0A000000460C0020C4
:101FE0000C0000202DE9F041ADF5936D064614225A
:101FF00011A10DF28440FEF7B4F94FF49062134939
:1020000001A8FEF7AEF900240DF2844801AF18F8DC
:102010000400B04208D107EB84100546FEF73DF9F5
:1020200081B2284600F0C2FB641CE4B2122CEED34D
:102030000DF5936DBDE8F081000102030506070868
:10204000090A0B0C0D0E0F1011120000802D000854
:102050002DE9F04788B0834E834FB0683C68A042BA
:1020600000D9B460DFF8048241F288324FF4FA619B
:1020700098F8000007281ED003DC48B101287BD166
:1020800010E07A4B0A285D8846D00C2874D120E0F5
:10209000B068201AB0F57A7F6ED9B4600120FFF7DE
:1020A000A1FF69E0B068201A904265D9B4600320AE
:1020B000FFF798FF60E098F8060000285CD1B06850
:1020C000201A884258D9B4600F2169A000F06EFB35
:1020D00052E0002D50D1B068201A904202D870789A
:1020E000002849D198F80100002845D1182264A1A0
:1020F00002A8FEF736F9D8F82600CDF8170066A03A
:102100000088ADF81B00B460152102A800F04EFB5A
:102110007078401C70702FE0B8F80400854224D21B
:10212000B068201A884202D8B088854224D018228C
:102130005AA102A8FEF715F9B5806D1C75808DF8BF
:102140000550280A8DF80400022201A90DF117009C
:10215000FFF72EFD50A00088ADF81B003868B06076
:10216000152102A800F022FB06E00D2088F80000EF
:102170000C2150A000F01AFB4FF4806A4FF00009C8
:10218000504F5CE0F58804EB0508C8F30A01795C60
:102190000D2912D00A2910D0844203D2021B691CD7
:1021A0008A4207DC844253D9C4F500610144681CAB
:1021B00081424DDD6D1CF58041E0022D34D3514646
:1021C0004148FEF700F9B8F5006F05D2E1192A463B
:1021D0003D48FEF781F824E0C4F50060C11700EB2C
:1021E00091516FF30901421AE1193748FEF774F86B
:1021F000B7F80218F388C1F50060C21700EB9252DD
:102200006FF30902821A1944C2F58062C1F30A0110
:1022100091FBF2F302FB13122B4908442949FEF704
:102220005BF8294800F052F8F088B7F80218401C13
:102230000844C0F30A00A7F80208A6F80690B7F809
:102240000248B7F8000884429CD108B0BDE8F08786
:10225000F0885045F9D3A7F80098A7F80298A6F897
:102260000690F2E70C00002000000020460C002041
:1022700041542B504F433D3432303030300D0A0042
:1022800041542B504F433D343330303030303030B8
:102290003030300D0A0000000D0A000041542B5070
:1022A0004F433D3433303030303031303030310D09
:1022B0000A00000041542B51504F57443D300D0A45
:1022C0000000000040000020460800202DE9F041F9
:1022D000ADF5027D0446022275A12046FDF7B1FF4F
:1022E0000126744D00282CD0072273A12046FDF74B
:1022F000A8FF80B3072272A12046FDF7A2FF04F1D8
:102300000E0800283DD009226FA12046FDF799FF55
:1023100000286AD009226FA12046FDF792FF00280D
:1023200065D009226EA12046FDF78BFF00286DD0F5
:102330000DF5027D2046BDE8F04109226BA1FDF7B5
:1023400080BF287840B1082801D1092028700DF5F8
:10235000027DBDE8F08101E02E70F8E7022266A15F
:10236000E01DFDF76EFF48B1022264A1E01DFDF7FC
:1023700068FF0028EBD105202870E8E707202870C7
:10238000E5E75F4E0C22311D4046FDF75AFF00285D
:10239000DDD1301DFDF781FF0246311D4046FDF7BE
:1023A00050FFC8B10C2028702021A81DFEF70BF8A3
:1023B0002046FDF772FF0E3800F01F024146A81DAF
:1023C000FDF78AFF3B480E211830FDF7FCFFD4F8DB
:1023D0000900C5F82600BAE70D2028700C2149A095
:1023E00000F0E4F90B202870B1E76E70AFE70A2027
:1023F0002870042281A904F1090000F02BF9BDF82E
:102400000402010A41EA0020A880A0E72046FDF767
:1024100044FFB0F5077F9AD34FF48077394641A83F
:10242000FDF7F3FF042281A904F5067000F012F90C
:1024300004226946404600F00DF97A0041A904F1F2
:10244000180000F007F9BDF80000010AC0B241EA27
:102450000024394641A8FFF76BF8BDF80412884202
:102460008BD16888401CA04287D12A492A4C087821
:1024700028B90E704FF4C3212046FEF725F968886D
:1024800004EB00243A4641A92046FEF7B9F93A4642
:1024900001A92046FEF743F93A4641A901A8FDF7F4
:1024A000D0FE002897D16888401C68804FE7000064
:1024B0004F4B0000460C00202B504F433A3832005F
:1024C0002B504F433A3432002B504F433A34333081
:1024D000300000002B504F433A34333032000000BC
:1024E0002B504F433A343330330000002B504F43CE
:1024F0003A34333031000000303200003031000017
:10250000700C002041542B51504F57443D300D0A60
:10251000000000000C000020004000080248406855
:102520000249C86088600047004000083000002071
:102530002DE9F04F89B000243FA090E80E00C0685C
:102540008DE80E00039001210820FEF78BFB01218E
:102550004020FEF787FB01212020FEF783FB0125A9
:10256000DFF8E4804FF4805B10260DF11009EA4695
:10257000ADF820B08DF822508DF82360334F08A9B4
:102580003846FEF75EF959463846FEF7B6F904209C
:10259000ADF820008DF822508DF8236008A9404640
:1025A000FEF74FF904214046FEF7A7F98020ADF869
:1025B00020008DF822508DF82360254F08A9384659
:1025C000FEF73FF980213846FEF797F90220ADF873
:1025D00020008DF8225048208DF8230008A940469D
:1025E000FEF72FF94FF48047ADF820708DF8225098
:1025F0008DF8236008A94046FEF723F93946404686
:10260000FEF77BF91022002104A8FEF7DBFC002076
:1026100019F800101AF80020914203D1401C80B232
:102620001028F5D3102804D0641CA4B2B4F57A7F26
:102630009ED309B0BDE8F08F0000040000000BFF3E
:1026400000000C0000001BFF000C014000140140C2
:10265000001801402DE9F04106460F46904600243F
:102660001DE0305DFDF7DEFDC5B230194078FDF7A5
:10267000D9FDC3B2392D02D9373DEDB201E0303D6D
:10268000EDB2392B02D9373BDBB201E0303BDBB294
:1026900007EB540143EA05100870A41CA4B244459A
:1026A000DFD3BDE8F081000070B588B04FF4A060C2
:1026B000FEF780FA26208DF8180001208DF8190009
:1026C0008DF81A008DF81B0006A8FEF741FA2C4D74
:1026D0002846FEF7B7FD01214804FEF7A7FA0121BD
:1026E0000420FEF7BFFA0424ADF81C4003208DF847
:1026F0001E0018208DF81F00224E07A93046FEF755
:10270000A0F80820ADF81C008DF81F4007A930463E
:10271000FEF797F8012240F225512846FEF70BFEFE
:1027200001212846FEF781FD4FF4E130029000249C
:10273000ADF80C40ADF80E40ADF81040ADF81440C7
:102740000C20ADF81200ADF800402815ADF80200DD
:102750004010ADF80400ADF8064069462846FEF783
:1027600055FD02A92846FEF701FE074D6C802C801E
:10277000F114A5F50060FDF726FE2C7108B070BDC0
:1027800000440040000801404008002010B5064CFD
:1027900001462046FEF74CFE80212046FEF7A4FDB0
:1027A0000028F9D010BD00000044004070B5054677
:1027B0000E46002404E0285DFFF7E8FF641CA4B285
:1027C000B442F8D370BD2DE9F04F8DB08346169E0C
:1027D000884692461D46202104A8FDF716FE504665
:1027E000FDF75BFD80B20C90002408F108094CE075
:1027F0001AF80410A1F120005E2820D804A8FFF7E1
:10280000B1F804EB44000BEB40079A2F3BD8CDE91D
:1028100001650820009008F0FF01F8B2062304AA21
:10282000FFF707FBCDE901650520009009F0FF01E6
:10283000F8B206230DF11602FFF7FBFA23E00AEBCC
:10284000040104A8FFF7B4F8E8B104EB44000BEB73
:102850004007942F15D8CDE901650820009008F0B5
:10286000FF01F8B20C2304AAFFF7E3FACDE90165F2
:102870000420009009F0FF01F8B20C2307AAFFF72B
:10288000D8FA641CA4B2641CA4B20C988442AFD3DE
:102890000DB0BDE8F08F2DE9F04F8DB08346169F47
:1028A000884692461E46202104A8FDF7AEFD5046FC
:1028B000FDF7F3FC80B20C90002508F1080957E001
:1028C0001AF80510A1F120005E282DD804A8FFF702
:1028D0005DF8002404AB1819017AC90001721A5D71
:1028E00041EA52110172D0001855641CA4B2082CA0
:1028F000F1D30BEBC504982C38D8CDE9017608202C
:10290000009008F0FF01E0B2082304AAFFF791FA53
:10291000CDE901760820009009F0FF01E0B208231C
:1029200006AAFFF786FA21E00AEB050104A8FFF7E3
:102930008DF8D8B10BEBC504902C15D8CDE90176F4
:102940000820009008F0FF01E0B2102304AAFFF76E
:1029500070FACDE901760820009009F0FF01E0B29D
:10296000102308AAFFF765FA6D1CADB26D1CADB25D
:102970000C988542A4D30DB0BDE8F08F10B50029A6
:102980000AD00878002807D005487844FDF7A6FD4E
:10299000002801D0002010BD0248784410BD00007E
:1029A000960800008E0800002DE9C04130B4DFF821
:1029B000A0C23CEA111418BF3CEA131400F0EC80EA
:1029C00081EA03051CEA111444EAD57418BF1CEA15
:1029D000131500F0C780A4EB05044FF0004545EA4D
:1029E000C12145EAC32341EA505143EA525304F15D
:1029F0007F74994204F500344FEAC0204FEAC222A6
:102A000008BF904200F09C804FEA13650FF2401619
:102A1000765D4FEA134506FB05F7C7F1807706FBA5
:102A200007F74FEAD737A7FB03687642C8F5803827
:102A3000A7FB06CE38BFA8F1010807FB08E64FF058
:102A4000000EA6FB028CE6FB03CEDCF1000CCEF1FF
:102A5000004E38BFAEF1010EA6FB0C584FF0000738
:102A60004FF00005E6FB0E87A1FB08C6A0FB07CED2
:102A700016EB0E0645F10005E1FB076515F1E04E8A
:102A80007EBFA4F580345FEA46066D4116F18007EB
:102A900045F100054FEA17274FEA066647EA056742
:102AA000A6F1DE46B6F1805F4FEA15251FD93846FC
:102AB00024F0010C05EBC471BCF1FE6F01EB0C11AD
:102AC00002D8F0BCBDE8008124425CBF01F5801E45
:102AD0009EEAC47F02D4F0BCBDE80081244238D411
:102AE000F0BCA1F1C041BDE8004100F043B94FEA9C
:102AF000D22242EA43524FEAD323A7FB02864FEA8F
:102B0000D02040EA415007FB03661EEA0E0F4FEA51
:102B1000D12105FB026658BFA6EB0056B6EB005666
:102B20004FEA520E4EEAC37E18EB0E0E56EB530ED2
:102B3000BDD518EB02085E417F1C55F10005B6E7D4
:102B40004FF480154FF000074FF000064FF00008DB
:102B5000ADE7F0BC4FF0000001F1C04101F00041D1
:102B6000BDE8008111EA0C1F0CEA131500D00CE03F
:102B700013EA0C1F00F025804FF00000F0BC81EA42
:102B8000030101F00041BDE80081F0BCBDE8004157
:102B900081EA030100F0EEB8F0BCBDE8004170B579
:102BA00000F09AF8097EFC3E00F007B881EA0301C4
:102BB0004FF0000001F00041704781EA030100F08E
:102BC000D9B8F0BCBDE800414FF000002149704782
:102BD000FFFDFBF9F7F5F4F2F0EEEDEBE9E8E6E4E2
:102BE000E3E1E0DEDDDBDAD8D7D5D4D3D1D0CFCD69
:102BF000CCCBCAC8C7C6C5C4C2C1C0BFBEBDBCBBA2
:102C0000BAB9B8B7B6B5B4B3B2B1B0AFAEADACAB9C
:102C1000AAA9A8A8A7A6A5A4A3A3A2A1A09F9F9E76
:102C20009D9C9C9B9A999998979796959594939328
:102C3000929191908F8F8E8E8D8C8C8B8B8A8989BF
:102C40008888878786858584848383828281818042
:102C50000000FF070000F87F4FEA1153A3F58063DF
:102C6000D3F11E03A8BFD3F1200C08DB4FF00042C4
:102C700042EAC12252EA505232FA03F07047094246
:102C80000BD4102BC4BF0020704703F5787CBCF137
:102C9000FF3F05D04FF0FF3070474FF00000704706
:102CA00070B500F019F800BF4992248000207047E9
:102CB000F0E7B0FA80F310FA03F10AD0C3F11D0374
:102CC00003F580634FEA41504FEA035202EBD121F2
:102CD00070474FF0000070470EF1020E2EF0030E09
:102CE0005EF8046B364205D4012A43EB030515F563
:102CF000001F12D8012841EB010C1CF5001F0CD855
:102D00000ED14FEAD17C15F5001F0CEB4C0C0CF1E9
:102D1000020C08BF4CEBD37C04E04FF0080C01E040
:102D20004FEAD37C0CEB4C0526FA05F606F00706B5
:102D3000B6F1040C06D20EEB860CBDE870404CF0E8
:102D4000010C6047DFE80CF0090B02024FF0004174
:102D50004FF00000A1F5002170BD19461046012872
:102D600051EB010418BFD4F5001484BF002001F01A
:102D7000004170BD0808A0F500114FEA310170470D
:102D800041540D0A00000000000000000000000097
:102D90000000000000000000000000000000000033
:102DA0000000000000000000000000000000000023
:102DB0000000000000000000000000000000000013
:102DC000415445300D0A00000000000000000000E2
:102DD00000000000000000000000000000000000F3
:102DE00000000000000000000000000000000000E3
:102DF00000000000000000000000000000000000D3
:102E000041542B4350494E3F0D0A00000000000082
:102E100000000000000000000000000000000000B2
:102E200000000000000000000000000000000000A2
:102E30000000000000000000000000000000000092
:102E400041542B504F433D303030303030303130F2
:102E50003130310D0A0000000000000000000000C9
:102E60000000000000000000000000000000000062
:102E70000000000000000000000000000000000052
:102E800041542B43434C4B3F0D0A0000000000000F
:102E90000000000000000000000000000000000032
:102EA0000000000000000000000000000000000022
:102EB0000000000000000000000000000000000012
:102EC00041542B4353510D0A000000000000000044
:102ED00000000000000000000000000000000000F2
:102EE00000000000000000000000000000000000E2
:102EF00000000000000000000000000000000000D2
:102F000041542B504F433D3044303030300D0A0097
:102F100000000000000000000000000000000000B1
:102F200000000000000000000000000000000000A1
:102F30000000000000000000000000000000000091
:102F400041542B51504F57443D300D0A00000000B2
:102F50000000000000000000000000000000000071
:102F60000000000000000000000000000000000061
:102F70000000000000000000000000000000000051
:102F800041542B514E57494E464F0D0A0000000048
:102F90000000000000000000000000000000000031
:102FA0000000000000000000000000000000000021
:102FB0000000000000000000000000000000000011
:102FC00041542B5A41445345543D640D0A000000BE
:102FD00000000000000000000000000000000000F1
:102FE00000000000000000000000000000000000E1
:102FF00000000000000000000000000000000000D1
:1030000041542B504F433D31303030303032300D51
:103010000A000000000000000000000000000000A6
:1030200000000000000000000000000000000000A0
:103030000000000000000000000000000000000090
:1030400041542B504F433D3033303030300D0A0067
:103050000000000000000000000000000000000070
:103060000000000000000000000000000000000060
:103070000000000000000000000000000000000050
:1030800041542B504F433D3035303030300D0A0025
:103090000000000000000000000000000000000030
:1030A0000000000000000000000000000000000020
:1030B0000000000000000000000000000000000010
:1030C00041542B4346554E3D312C310D0A00000032
:1030D00000000000000000000000000000000000F0
:1030E00000000000000000000000000000000000E0
:1030F00000000000000000000000000000000000D0
:1031000041545E4D4549440D0A0000000000000096
:1031100000000000000000000000000000000000AF
:10312000000000000000000000000000000000009F
:10313000000000000000000000000000000000008F
:1031400041542B51494F545250543D312C300D0AAB
:10315000000000000000000000000000000000006F
:10316000000000000000000000000000000000005F
:10317000000000000000000000000000000000004F
:1031800041542B51475053474E4D45413D224747EF
:1031900041220D0A000000000000000000000000B5
:1031A000000000000000000000000000000000001F
:1031B000000000000000000000000000000000000F
:1031C00041542B504F433D3032303030300D0A00E7
:1031D00000000000000000000000000000000000EF
:1031E00000000000000000000000000000000000DF
:1031F00000000000000000000000000000000000CF
:103200003033000800000020400000006C0100087E
:103210007033000840000020B8200000880100083A
:103220001001000043000000F8FFFFFF0040404095
:103230004040404040404141414141404040404089
:103240004040404040404040404040404005020235
:1032500002020202020202020202020202202020F4
:103260002020202020202002020202020202909050
:10327000909090901010101010101010101010104E
:1032800010101010101010100202020202028888A2
:1032900088888888080808080808080808080808AE
:1032A0000808080808080808020202024000000096
:1032B000000000000000000000000000000000000E
:1032C00000000000000000000000000000000000FE
:1032D00000000000000000000000000000000000EE
:1032E00000000000000000000000000000000000DE
:1032F00000000000000000000000000000000000CE
:1033000000000000000000000000000000000000BD
:1033100000000000000000000000000000000000AD
:10332000000000000000000000000000000000009D
:10333000000000000000000000000000000000008D
:103340000000000000000000000000000204060869
:10335000000000000102030401020304060708093B
:10336000000000000000000000000000000000005D
:0400000508000131BD
:00000001FF
